:020000040000FA
:100000000C9462000C948A000C948A000C948A0070
:100010000C948A000C948A000C948A000C948A0038
:100020000C948A000C948A000C948A000C948A0028
:100030000C948A000C948A000C948A000C948A0018
:100040000C9467060C948A000C948A000C948A0025
:100050000C948A000C948A000C948A000C948A00F8
:100060000C94B1060C948A000000000024002700C4
:100070002A0000000000250028002B0000000000DE
:1000800023002600290004040404040404040202DA
:100090000202020203030303030301020408102007
:1000A0004080010204081020010204081020000012
:1000B0000008000201000003040700000000000027
:1000C0000000D00711241FBECFEFD8E0DEBFCDBFA8
:1000D00011E0A0E0B1E0EEEFF7E102C005900D9273
:1000E000A232B107D9F722E0A2E2B1E001C01D922D
:1000F000A631B207E1F710E0C2E6D0E004C02197D4
:10010000FE010E94F70BC136D107C9F70E94E40730
:100110000C94FD0B0C94000080910E02982F9F7799
:1001200092959F708F702AE0929F800D112490E02D
:10013000089590911002892F8F7096FF08C09295B4
:1001400091702AE0929F800D112490E008959F7392
:1001500092959F70F6CF409110029C0146FF10C00F
:10016000215031092C303105B0F46AE00E94C30BF4
:100170008295807F890F4076842B809310020895AA
:100180008931910540F46AE00E94C30B8295807F1B
:10019000980F90931002089508950895833081F088
:1001A00028F4813099F08230A9F008958730A9F0C1
:1001B0008830C9F08430B1F4809180008F7D03C015
:1001C000809180008F7780938000089584B58F7729
:1001D00084BD089584B58F7DFBCF8091B0008F776B
:1001E0008093B00008958091B0008F7DF9CFCF93B8
:1001F000DF93282F30E0F901E255FF4F8491F90198
:10020000E656FF4FD491F901EA57FF4FC491CC2332
:10021000A1F081110E94CE00EC2FF0E0EE0FFF1F45
:10022000E458FF4FA591B491EC91ED2381E090E06B
:1002300009F480E0DF91CF91089580E090E0FACF5B
:100240001F93CF93DF93282F30E0F901E255FF4F42
:100250008491F901E656FF4FD491F901EA57FF4F17
:10026000C491CC23A9F0162F81110E94CE00EC2F4F
:10027000F0E0EE0FFF1FEE58FF4FA591B4918FB73E
:10028000F894EC91111108C0D095DE23DC938FBF58
:10029000DF91CF911F910895DE2BF8CFCF93DF939D
:1002A00090E0FC01E656FF4F24918A579F4FFC01D6
:1002B00084918823D1F090E0880F991FFC01E859C0
:1002C000FF4FA591B491FC01EE58FF4FC591D49119
:1002D000623071F49FB7F8943C91822F809583230C
:1002E0008C93E8812E2B28839FBFDF91CF910895B7
:1002F0008FB7F894EC912E2B2C938FBFF6CF3FB78E
:10030000F89480916B0190916C01A0916D01B09176
:100310006E0126B5A89B05C02F3F19F00196A11DBF
:10032000B11D3FBFBA2FA92F982F8827BC01CD013F
:10033000620F711D811D911D42E0660F771F881F9E
:10034000991F4A95D1F708958F929F92AF92BF92CD
:10035000CF92DF92EF92FF924B015C010E947F01EE
:100360006B017C010E947F016C197D098E099F0938
:10037000683E734081059105A8F321E0821A910837
:10038000A108B10888EEC80E83E0D81EE11CF11C5C
:1003900081149104A104B10429F7FF90EF90DF903C
:1003A000CF90BF90AF909F908F9008952FB7F89403
:1003B00060916701709168018091690190916A0173
:1003C0002FBF089520914301260F3327331F213279
:1003D0003105ECF42091FC01FC0190E080E0243038
:1003E00069F082E00895A09143012191AC014D5D37
:1003F0005E4FA40FB52FB11D2C930196861798F36D
:1004000080914301680F6093430180E0089581E08B
:1004100008951092FC0181E08093DB011092D601D7
:1004200061E082E10E94200161E083E10E942001FD
:10043000E9EBF0E080818E7F808380818D7F8083F7
:1004400088E48093B80085E48093BC0008951092FE
:10045000910110929001109293011092B5010E94A7
:1004600009028CEC90E090938F0180938E018DECCB
:1004700090E090938D0180938C010895CF93DF934A
:1004800091E0909322018823B9F0C091B800D091F7
:10049000BA008091BC008A7B8093BC0060E082E15E
:1004A0000E94200160E083E10E9420010E94090275
:1004B000D093BA00C093B800DF91CF910895CF9246
:1004C000DF92EF92FF920F931F93CF93DF93D82F7A
:1004D000C62F613208F098C00E947F016B017C0139
:1004E0008091FC0181116BC081E08093FC018093BD
:1004F000DB019FEF9093DA011092D9019C0F90934A
:10050000D8018093D7018091D701DD0FD82BD093EC
:10051000D7018091D601813009F078C01092D601C0
:100520000E947F016B017C018091D7018093BB0009
:100530008091FE019091FF01A0910002B091010213
:10054000892B8A2B8B2BA1F00E947F010091FE0149
:100550001091FF0120910002309101026C197D0978
:100560008E099F09061717072807390708F448C09E
:100570008091BC0083FDD8CF85EC8093BC000E94A5
:100580007F016B017C018091FC01813009F440C046
:100590008091D9018C1710F4C091D901E6EBF1E0FC
:1005A000ACEDB1E080E08C1355C08C2FDF91CF9182
:1005B0001F910F91FF90EF90DF90CF900895809161
:1005C000FE019091FF01A0910002B0910102892BE0
:1005D0008A2B8B2B09F484CF0E947F010091FE01AE
:1005E0001091FF0120910002309101026C197D09E8
:1005F0008E099F09061717072807390708F070CFDB
:100600008091FD010E943E02C0E0CFCF85EEB5CFC4
:100610008091FE019091FF01A0910002B091010232
:10062000892B8A2B8B2B09F4AECF0E947F0100917E
:10063000FE011091FF0120910002309101026C191E
:100640007D098E099F09061717072807390708F043
:100650009ACFD6CF91919D938F5FA5CFCF92DF9206
:10066000EF92FF920F931F93CF93DF93D091B50139
:1006700081E0D13208F09CC0C091B4010E947F019A
:100680006B017C018091FC0181116CC082E0809340
:10069000FC0181E08093DB018FEF8093DA011092FF
:1006A000D901D093D801A4E9B1E0E6EBF1E080E014
:1006B000D8138DC01092D7018091D701CC0FC82BD1
:1006C000C093D7018091D601813009F084C0109287
:1006D000D6010E947F016B017C018091D70180933C
:1006E000BB008091FE019091FF01A0910002B091AA
:1006F0000102892B8A2B8B2BA1F00E947F01009194
:10070000FE011091FF0120910002309101026C194D
:100710007D098E099F09061717072807390708F46E
:1007200042C08091BC0083FDD8CF85EC8093BC0093
:100730000E947F016B017C018091FC01823009F4F1
:100740004CC08091DA018F3F09F469C08091DA01D1
:10075000803209F466C08091DA01803309F463C005
:1007600084E026C08091FE019091FF01A0910002DB
:10077000B0910102892B8A2B8B2B09F483CF0E9425
:100780007F010091FE011091FF0120910002309144
:1007900001026C197D098E099F09061717072807A2
:1007A000390708F06FCF8091FD010E943E0285E07D
:1007B000109293011092B50110929201DF91CF91A6
:1007C0001F910F91FF90EF90DF90CF9008959D9132
:1007D00091938F5F6DCF85EEA9CF8091FE019091AF
:1007E000FF01A0910002B0910102892B8A2B8B2B73
:1007F00009F4A2CF0E947F010091FE011091FF0138
:1008000020910002309101026C197D098E099F0927
:10081000061717072807390708F08ECFC4CF80E0E6
:10082000C7CF82E0C5CF83E0C3CF0895E0919101A7
:1008300080919001E81730F4F0E0E452FE4F80819F
:1008400090E008958FEF9FEF08959091910180912E
:1008500090012FEF3FEF981748F4E92FF0E0E452B2
:10086000FE4F208130E09F5F90939101C901089570
:100870008091900190919101891B990B0895CF92DD
:10088000DF92EF92FF920F931F93CF93DF937C0140
:10089000CB018A0120919201222389F0EB016B01A7
:1008A000C40ED51ECC15DD0569F06991D701ED9117
:1008B000FC910190F081E02DC7010995F3CF642FE1
:1008C0000E94E201C801DF91CF911F910F91FF902B
:1008D000EF90DF90CF900895CF93DF931F92CDB725
:1008E000DEB76983209192012223F9F02091B501AE
:1008F000203258F021E030E0FC013383228390E085
:1009000080E00F90DF91CF91089580919301E82FBF
:10091000F0E0EC56FE4F998190838F5F80939301B6
:100920008093B50181E090E0ECCF61E0CE010196CB
:100930000E94E201F7CF90E080E00895CF93C62FA8
:1009400091E09093920198E69093B40110929301F4
:100950001092B501682F82E092E00E946C046C2F27
:1009600082E092E00E946C04CF910C942E03CF930E
:10097000DF9360E880E00E949E0481E08093920112
:1009800088E68093B401109293011092B50161E062
:1009900082E092E00E946C04CEE0D2E0698182E0C5
:1009A00092E00E946C046A8182E092E00E946C04F2
:1009B0006B8182E092E00E946C046C8182E092E0A4
:1009C0000E946C046D8182E092E00E946C046E8152
:1009D00082E092E00E946C040E942E03688180E015
:1009E000DF91CF910C949E04CF93C82F81E0809328
:1009F000920188E68093B401109293011092B501A0
:100A00006EE082E092E00E946C0464E0C11160E05C
:100A100082E092E00E946C04CF910C942E03CF935D
:100A200080917E018330A9F130F4813089F08230E9
:100A300031F1CF9108958430E9F18530D1F780917B
:100A40007D018B3308F041C08F5F80937D01F1CF32
:100A5000C0917C01C827C0937C016C2F89E00E9463
:100A60009E04CC2331F380917B01811104C08CE082
:100A700080937B01DECF8D30E0F28C50F9CF609116
:100A8000730181E068276093730180E1CF910C943A
:100A90009E0480917B0190917C01992331F08C30F0
:100AA00010F48F5FE5CF81E0E3CF8731D0F3109270
:100AB0007B01BFCF809178018B3320F48F5F8093CF
:100AC0007801B7CF10927801B4CF10927D01B1CFE9
:100AD0000F931F93CF93DF93C82F062F10E0065F6D
:100AE0001E4F8BE0662319F0F8013197808160E09A
:100AF0000E94200161E082E00E94200161E084E028
:100B00000E94200161E087E00E94200161E088E00E
:100B10000E94200161E0F80180810E942001CF3F06
:100B2000D1F461E082E00E94200161E084E00E9453
:100B3000200161E087E00E94200161E088E00E94DE
:100B4000200162E070E080E090E0DF91CF911F91A2
:100B50000F910C94A4016C2F617082E00E9420011F
:100B6000D0E0BE0175956795617084E00E94200118
:100B7000BE017595679575956795617087E00E94D0
:100B8000200123E0D595C7952A95E1F76C2F617078
:100B9000D5CFCF93DF9381E08093920188E6809355
:100BA000B401109293011092B50160E082E092E0EE
:100BB0000E946C040E942E0368E088E60E945F0297
:100BC000109291018093900182E092E00E942504AE
:100BD000CEE0D2E0888382E092E00E9425048983FF
:100BE00082E092E00E9425048A8382E092E00E94E3
:100BF00025048B8382E092E00E9425048C8382E0AE
:100C000092E00E9425048D8382E092E00E942504F8
:100C10008E8382E092E00E9425048F83DF91CF9142
:100C2000089591E09093920198E69093B401109208
:100C300093011092B501682F82E092E00E946C044B
:100C40000E942E0361E088E60E945F0210929101EB
:100C50008093900182E092E00E942504089585ED42
:100C60008093BC008091FE019091FF01A091000251
:100C7000B09101020796A11DB11D23E0B695A7957D
:100C8000979587952A95D1F72091BC0024FD03C044
:100C90001092FC0108954091FE015091FF01609176
:100CA000000270910102452B462B472B69F30097F8
:100CB000A105B10541F025E32A95F1F70000019760
:100CC000A109B109E1CF8091FD010C943E021F9270
:100CD0000F920FB60F9211242F933F938F939F93F0
:100CE000AF93BF938091670190916801A0916901D2
:100CF000B0916A013091660123E0230F2D3758F53A
:100D00000196A11DB11D2093660180936701909308
:100D10006801A0936901B0936A0180916B01909181
:100D20006C01A0916D01B0916E010196A11DB11DE4
:100D300080936B0190936C01A0936D01B0936E0151
:100D4000BF91AF919F918F913F912F910F900FBEC7
:100D50000F901F90189526E8230F0296A11DB11D34
:100D6000D2CF1F920F920FB60F9211242F933F9361
:100D70004F935F936F937F938F939F93AF93BF93A3
:100D8000EF93FF938091B900887F803609F44AC0C1
:100D9000F0F5883209F4A7C018F5803109F49BC03A
:100DA000B8F4882309F4F9C0883009F494C0FF919D
:100DB000EF91BF91AF919F918F917F916F915F91D3
:100DC0004F913F912F910F900FBE0F901F9018954C
:100DD000883109F488C0803251F78093DA0114C059
:100DE000803409F49DC040F48033B9F38833F9F6B8
:100DF0008093DA0185ECB0C0803509F485C0883570
:100E000009F496C0883499F60E942F06D0CF88390D
:100E100009F48CC038F5883729F050F4883611F081
:100E2000803729F683E08093FC011092650157C05A
:100E3000883809F47BC0803919F0803809F0B7CFC1
:100E400080916501803208F071C0E091650181E018
:100E50008E0F809365018091BB00F0E0EB5BFE4F4D
:100E600080833DC0803B39F0E0F4803A09F479C0DA
:100E7000883A09F09CCF84E08093FC0110924401F1
:100E800010924301E0918E01F0918F0109958091BC
:100E9000430181110FC081E080934301109223012F
:100EA00009C0803C09F4A6CF883C09F4A3CF883B55
:100EB00009F07DCFE091440181E08E0F80934401E1
:100EC000F0E0ED5DFE4F80818093BB009091440186
:100ED0008091430129C08091D7018093BB0085ECAC
:100EE0008093BC0064CF9091D9018091D80198176C
:100EF00058F5E091D90181E08E0F8093D901F0E09F
:100F0000EA54FE4F8081E9CFE091D90181E08E0F54
:100F10008093D9018091BB00F0E0EA54FE4F8083BA
:100F20009091D9018091D8019817C8F285E8D8CF5F
:100F3000E091D90181E08E0F8093D9018091BB00AF
:100F4000F0E0EA54FE4F80838091DB0181115CCF99
:100F500081E08093D60184EA8093BC001092FC016A
:100F600026CF85EC8093BC001092FC018091650136
:100F7000803230F4E0916501F0E0EB5BFE4F1082CF
:100F80006091650170E0E0918C01F0918D0185E444
:100F900091E00995109265010ACF1092DA0134CFE1
:100FA000E2E0F2E01382128288EE93E0A0E0B0E08B
:100FB00084839583A683B78384E191E091838083C2
:100FC0000E9427020C942702789484B5826084BD25
:100FD00084B5816084BD85B5826085BD85B581603D
:100FE00085BD80916E00816080936E0010928100BB
:100FF0008091810082608093810080918100816076
:101000008093810080918000816080938000809136
:10101000B10084608093B1008091B00081608093C2
:10102000B00080917A00846080937A0080917A0089
:10103000826080937A0080917A00816080937A0048
:1010400080917A00806880937A001092C1000E949B
:10105000270261E082E00E944E0161E084E00E948C
:101060004E0161E087E00E944E0161E088E00E944D
:101070004E01EAE0AE2EE1E0BE2E61E0F501819185
:101080005F010E944E01F0E1AF16F1E0BF06A9F743
:1010900062E08FE00E944E0162E08EE00E944E010D
:1010A0000E94C90589E00E941106C82F81E0C11184
:1010B00001C080E080937C0180E10E94110691E0F4
:1010C000811101C090E090937301892F0E94F40474
:1010D000CC23E1F00E949900EC010E948C009C015D
:1010E000CD2BA1F490910F02892F82958F709F7064
:1010F0004AE0849F900D1124911108C0232B31F4F4
:101100008CE090E00E94AB000E94B7040E948C002B
:1011100080937D017AE0772E66246A940AE010E0DD
:101120005524539480917E0181112CC00E94D601D8
:10113000C0906F01D0907001E0907101F090720149
:101140006C197D098E099F09683E734081059105E0
:1011500008F45CC00E94D60160936F017093700127
:1011600080937101909372010E94C90580917C0166
:1011700081111EC00E949900B8010E94CF0B60939C
:101180007A011EC0813009F0C6C290917C0199237A
:1011900009F44EC180937A01F2E0F09379016092F4
:1011A00077016092760160927501609274012EC0A1
:1011B0000E9499000996439708F037C160927A011E
:1011C0000E949900B8010E94CF0B80937901809111
:1011D0000F02982F92959F708F70979D800D11240C
:1011E00090E0B8010E94CF0B609377018093760165
:1011F0000E948C00B8010E94CF0B609375010E9481
:101200008C00B8010E94CF0B8093740160E0809144
:101210007A010E94680561E0809179010E94680569
:1012200062E0809177010E94680563E08091760119
:101230000E94680564E0809175010E94680565E080
:10124000809174010E9468058FE00E94F700EC0114
:10125000892B09F0F3C1809187018111EFC10E94B0
:10126000D6016093830170938401809385019093EC
:1012700086015092870180917E01853008F07EC101
:101280008F5F80937E01853009F04FC110927D0100
:1012900080917801672D0E94C30B80937701909312
:1012A000760180917E018130F1F460910E026068D8
:1012B00060930E0280E00E949E0480E00E94F4048D
:1012C0000E94990080937B0180910F02982F929544
:1012D0009F708F70979D800D1124809378010E94DC
:1012E0008C0080937D010E94D601C0908801D0902F
:1012F0008901E0908A01F0908B016C197D098E09BB
:101300009F09603C77428940910508F486C00E949D
:10131000D601609388017093890180938A0190932C
:101320008B016AE0E62E61E0F62E60E0F701819124
:101330007F010E942001AE14BF04B9F75AE0C52E08
:1013400051E0D52EF601308061E0832D0E9420010E
:10135000F601418061E0842D0E94200143E0242EAB
:1013600030E0832E31E0932EF401C1914F016C2FB8
:10137000617082E00E942001D0E0BE017595679502
:10138000617084E00E942001BE0175956795759596
:101390006795617087E00E94200123E0D595C7958D
:1013A0002A95E1F76C2F617088E00E94200166E9C0
:1013B00070E080E090E00E94A401FAE08F16F1E076
:1013C0009F0691F62A942110CBCF60E0832D0E94D6
:1013D000200160E0842D0E94200122E0C20ED11C79
:1013E000CE14DF0409F0AECF61E082E00E9420015C
:1013F00061E084E00E94200161E087E00E9420011A
:1014000061E088E00E942001CAE0D1E060E08991BB
:101410000E942001EC16FD06C9F780E090E0892BC0
:1014200009F480CE0E9400007DCE50927A01C8CE91
:1014300022E020937A0144E040937901B0CE80917C
:101440007301882329F050927A0160927901A7CE26
:1014500010927A01FACF0E94D601C0908301D090F9
:101460008401E0908501F09086016C197D098E0958
:101470009F09603271058105910508F058C1C6CEFB
:10148000822F672D0E94C30B80937A015CC1843048
:1014900029F58091870181110CC00E94D6018091AD
:1014A0007801672D0E94C30B80937701909376019A
:1014B000ADCE0E94D601C0908301D0908401E0900F
:1014C0008501F09086016C197D098E099F096032B3
:1014D00071058105910508F499CEE1CF853009F0B9
:1014E00095CE8091870181110CC00E94D601809118
:1014F0007D01672D0E94C30B809375019093740149
:1015000085CE0E94D601C0908301D0908401E090E6
:101510008501F09086016C197D098E099F09603262
:1015200071058105910518F771CE833009F012C15C
:1015300020917B0180917C01882319F08FEF2A3064
:1015400020F0822F672D0E94C30B80937A01822F97
:10155000672D0E94C30B90937901809178010E94BE
:10156000C30B809377019093760180917D010E9457
:10157000C30B809375019093740193CE10927E01FA
:10158000F09010028F2D807490917C01992309F4C2
:1015900045C0811113C00E9499002F2D2F7920641E
:1015A0008C3091051CF00C972F2D20662093100293
:1015B000009711F48CE090E00E94AB0080917301E1
:1015C0000E94F40480917B0190E00E94AB00809126
:1015D00078018C3340F4672D0E94C30B8295807F85
:1015E000980F90930F0280917D018C3360F4672DEA
:1015F0000E94C30B8295807F890F90910E02907894
:10160000892B80930E020E94B70460910E026F77BF
:1016100060930E0280E00E949E0443CE882371F204
:101620000E9499008C30910509F0EC01F5FC2C9694
:101630008F2D8F7B80931002CE01BECF8EE00E9453
:10164000F700892B29F480918701882309F454C07D
:101650008EE00E94F700892B09F045C08EE00E94C1
:10166000F700892B09F03FCE80918701882309F488
:101670003ACE0E94D601C0908301D0908401E090C0
:101680008501F09086016C197D098E099F096032F1
:1016900071058105910508F426CE0E94D601C090FF
:1016A0007F01D0908001E0908101F09082016C195F
:1016B0007D098E099F096B3471058105910508F438
:1016C00012CE80917E01813009F40DCE0E940F056B
:1016D0000E94D60160937F01709380018093810105
:1016E0009093820100CE8FE00E94F700892B09F4CD
:1016F000B5CF10928701F7CD0E94D6016093830188
:1017000070938401809385019093860150928701A4
:101710000E940F05E8CD823009F491CE833009F0A4
:10172000B6CE80918701811196CE0E94D60120917C
:101730007B0180917C01882309F4A2CE2A3008F035
:101740009FCE60927A01822F672D0E94C30B9093E7
:1017500079015CCD843009F0A4CD20917B0180918A
:101760007C01882319F08FEF2A3020F0822F672D1B
:101770000E94C30B80937A01822F672D0E94C30BB6
:10178000909379018ECD991B79E004C0991F96172B
:1017900008F0961B881F7A95C9F78095089597FBE6
:1017A000072E16F4009407D077FD09D00E94E30BB2
:1017B00007FC05D03EF4909581959F4F0895709554
:1017C00061957F4F0895AA1BBB1B51E107C0AA1F5B
:1017D000BB1FA617B70710F0A61BB70B881F991FD2
:1017E0005A95A9F780959095BC01CD010895EE0F0B
:1017F000FF1F0590F491E02D0994F894FFCF0308A2
:101800000904000507020601030506090A0B00008A
:1018100000006C043F049B041504380425041604DE
:107E0000112484B714BE81FFF0D085E080938100F7
:107E100082E08093C00088E18093C10086E0809377
:107E2000C20080E18093C4008EE0C9D0259A86E02C
:107E300020E33CEF91E0309385002093840096BBD3
:107E4000B09BFECF1D9AA8958150A9F7CC24DD24C4
:107E500088248394B5E0AB2EA1E19A2EF3E0BF2EE7
:107E6000A2D0813461F49FD0082FAFD0023811F036
:107E7000013811F484E001C083E08DD089C08234E0
:107E800011F484E103C0853419F485E0A6D080C0E4
:107E9000853579F488D0E82EFF2485D0082F10E0AE
:107EA000102F00270E291F29000F111F8ED06801E7
:107EB0006FC0863521F484E090D080E0DECF843638
:107EC00009F040C070D06FD0082F6DD080E0C81688
:107ED00080E7D80618F4F601B7BEE895C0E0D1E017
:107EE00062D089930C17E1F7F0E0CF16F0E7DF06D8
:107EF00018F0F601B7BEE89568D007B600FCFDCFD4
:107F0000A601A0E0B1E02C9130E011968C91119780
:107F100090E0982F8827822B932B1296FA010C0160
:107F200087BEE89511244E5F5F4FF1E0A038BF0790
:107F300051F7F601A7BEE89507B600FCFDCF97BE46
:107F4000E89526C08437B1F42ED02DD0F82E2BD052
:107F50003CD0F601EF2C8F010F5F1F4F84911BD097
:107F6000EA94F801C1F70894C11CD11CFA94CF0C13
:107F7000D11C0EC0853739F428D08EE10CD085E9AC
:107F80000AD08FE07ACF813511F488E018D01DD067
:107F900080E101D065CF982F8091C00085FFFCCF94
:107FA0009093C60008958091C00087FFFCCF809118
:107FB000C00084FD01C0A8958091C6000895E0E648
:107FC000F0E098E1908380830895EDDF803219F02E
:107FD00088E0F5DFFFCF84E1DECF1F93182FE3DFCA
:107FE0001150E9F7F2DF1F91089580E0E8DFEE27F6
:047FF000FF270994CA
:027FFE00040479
:00000001FF
